{
  "_format": "hh-sol-artifact-1",
  "contractName": "Assessment",
  "sourceName": "contracts/Assessment.sol",
  "abi": [
    {
      "inputs": [
        {
          "internalType": "uint256",
          "name": "initBalance",
          "type": "uint256"
        }
      ],
      "stateMutability": "payable",
      "type": "constructor"
    },
    {
      "inputs": [
        {
          "internalType": "uint256",
          "name": "balance",
          "type": "uint256"
        },
        {
          "internalType": "uint256",
          "name": "withdrawAmount",
          "type": "uint256"
        }
      ],
      "name": "InsufficientBalance",
      "type": "error"
    },
    {
      "anonymous": false,
      "inputs": [
        {
          "indexed": false,
          "internalType": "uint256",
          "name": "amount",
          "type": "uint256"
        }
      ],
      "name": "Deposit",
      "type": "event"
    },
    {
      "anonymous": false,
      "inputs": [
        {
          "indexed": true,
          "internalType": "address",
          "name": "recipient",
          "type": "address"
        },
        {
          "indexed": false,
          "internalType": "uint256",
          "name": "amount",
          "type": "uint256"
        }
      ],
      "name": "Transfer",
      "type": "event"
    },
    {
      "anonymous": false,
      "inputs": [
        {
          "indexed": false,
          "internalType": "uint256",
          "name": "amount",
          "type": "uint256"
        }
      ],
      "name": "Withdraw",
      "type": "event"
    },
    {
      "inputs": [],
      "name": "balance",
      "outputs": [
        {
          "internalType": "uint256",
          "name": "",
          "type": "uint256"
        }
      ],
      "stateMutability": "view",
      "type": "function"
    },
    {
      "inputs": [
        {
          "internalType": "uint256",
          "name": "_amount",
          "type": "uint256"
        }
      ],
      "name": "deposit",
      "outputs": [],
      "stateMutability": "payable",
      "type": "function"
    },
    {
      "inputs": [],
      "name": "getBalance",
      "outputs": [
        {
          "internalType": "uint256",
          "name": "",
          "type": "uint256"
        }
      ],
      "stateMutability": "view",
      "type": "function"
    },
    {
      "inputs": [],
      "name": "owner",
      "outputs": [
        {
          "internalType": "address payable",
          "name": "",
          "type": "address"
        }
      ],
      "stateMutability": "view",
      "type": "function"
    },
    {
      "inputs": [
        {
          "internalType": "address",
          "name": "_recipient",
          "type": "address"
        },
        {
          "internalType": "uint256",
          "name": "_amount",
          "type": "uint256"
        }
      ],
      "name": "transfer",
      "outputs": [],
      "stateMutability": "nonpayable",
      "type": "function"
    },
    {
      "inputs": [
        {
          "internalType": "uint256",
          "name": "_withdrawAmount",
          "type": "uint256"
        }
      ],
      "name": "withdraw",
      "outputs": [],
      "stateMutability": "nonpayable",
      "type": "function"
    }
  ],
  "bytecode": "0x6080604052604051610a9b380380610a9b833981810160405281019061002591906100ad565b336000806101000a81548173ffffffffffffffffffffffffffffffffffffffff021916908373ffffffffffffffffffffffffffffffffffffffff16021790555080600181905550506100da565b600080fd5b6000819050919050565b61008a81610077565b811461009557600080fd5b50565b6000815190506100a781610081565b92915050565b6000602082840312156100c3576100c2610072565b5b60006100d184828501610098565b91505092915050565b6109b2806100e96000396000f3fe6080604052600436106100555760003560e01c806312065fe01461005a5780632e1a7d4d146100855780638da5cb5b146100ae578063a9059cbb146100d9578063b69ef8a814610102578063b6b55f251461012d575b600080fd5b34801561006657600080fd5b5061006f610149565b60405161007c91906105bf565b60405180910390f35b34801561009157600080fd5b506100ac60048036038101906100a7919061060b565b610153565b005b3480156100ba57600080fd5b506100c36102a4565b6040516100d09190610679565b60405180910390f35b3480156100e557600080fd5b5061010060048036038101906100fb91906106d2565b6102c8565b005b34801561010e57600080fd5b5061011761049a565b60405161012491906105bf565b60405180910390f35b6101476004803603810190610142919061060b565b6104a0565b005b6000600154905090565b60008054906101000a900473ffffffffffffffffffffffffffffffffffffffff1673ffffffffffffffffffffffffffffffffffffffff163373ffffffffffffffffffffffffffffffffffffffff16146101e1576040517f08c379a00000000000000000000000000000000000000000000000000000000081526004016101d890610795565b60405180910390fd5b6000600154905081600154101561023357600154826040517fcf47918100000000000000000000000000000000000000000000000000000000815260040161022a9291906107b5565b60405180910390fd5b8160016000828254610245919061080d565b925050819055508181610258919061080d565b6001541461026957610268610841565b5b7f5b6b431d4476a211bb7d41c20d1aab9ae2321deee0d20be3d9fc9b1093fa6e3d8260405161029891906105bf565b60405180910390a15050565b60008054906101000a900473ffffffffffffffffffffffffffffffffffffffff1681565b60008054906101000a900473ffffffffffffffffffffffffffffffffffffffff1673ffffffffffffffffffffffffffffffffffffffff163373ffffffffffffffffffffffffffffffffffffffff1614610356576040517f08c379a000000000000000000000000000000000000000000000000000000000815260040161034d90610795565b60405180910390fd5b600073ffffffffffffffffffffffffffffffffffffffff168273ffffffffffffffffffffffffffffffffffffffff16036103c5576040517f08c379a00000000000000000000000000000000000000000000000000000000081526004016103bc906108bc565b60405180910390fd5b60006001549050816001541015610411576040517f08c379a000000000000000000000000000000000000000000000000000000000815260040161040890610928565b60405180910390fd5b8160016000828254610423919061080d565b925050819055508181610436919061080d565b6001541461044757610446610841565b5b8273ffffffffffffffffffffffffffffffffffffffff167f69ca02dd4edd7bf0a4abb9ed3b7af3f14778db5d61921c7dc7cd545266326de28360405161048d91906105bf565b60405180910390a2505050565b60015481565b6000600154905060008054906101000a900473ffffffffffffffffffffffffffffffffffffffff1673ffffffffffffffffffffffffffffffffffffffff163373ffffffffffffffffffffffffffffffffffffffff1614610535576040517f08c379a000000000000000000000000000000000000000000000000000000000815260040161052c90610795565b60405180910390fd5b81600160008282546105479190610948565b92505081905550818161055a9190610948565b6001541461056b5761056a610841565b5b7f4d6ce1e535dbade1c23defba91e23b8f791ce5edc0cc320257a2b364e4e384268260405161059a91906105bf565b60405180910390a15050565b6000819050919050565b6105b9816105a6565b82525050565b60006020820190506105d460008301846105b0565b92915050565b600080fd5b6105e8816105a6565b81146105f357600080fd5b50565b600081359050610605816105df565b92915050565b600060208284031215610621576106206105da565b5b600061062f848285016105f6565b91505092915050565b600073ffffffffffffffffffffffffffffffffffffffff82169050919050565b600061066382610638565b9050919050565b61067381610658565b82525050565b600060208201905061068e600083018461066a565b92915050565b600061069f82610638565b9050919050565b6106af81610694565b81146106ba57600080fd5b50565b6000813590506106cc816106a6565b92915050565b600080604083850312156106e9576106e86105da565b5b60006106f7858286016106bd565b9250506020610708858286016105f6565b9150509250929050565b600082825260208201905092915050565b7f596f7520617265206e6f7420746865206f776e6572206f66207468697320616360008201527f636f756e74000000000000000000000000000000000000000000000000000000602082015250565b600061077f602583610712565b915061078a82610723565b604082019050919050565b600060208201905081810360008301526107ae81610772565b9050919050565b60006040820190506107ca60008301856105b0565b6107d760208301846105b0565b9392505050565b7f4e487b7100000000000000000000000000000000000000000000000000000000600052601160045260246000fd5b6000610818826105a6565b9150610823836105a6565b925082820390508181111561083b5761083a6107de565b5b92915050565b7f4e487b7100000000000000000000000000000000000000000000000000000000600052600160045260246000fd5b7f496e76616c696420726563697069656e74206164647265737300000000000000600082015250565b60006108a6601983610712565b91506108b182610870565b602082019050919050565b600060208201905081810360008301526108d581610899565b9050919050565b7f496e73756666696369656e742062616c616e6365000000000000000000000000600082015250565b6000610912601483610712565b915061091d826108dc565b602082019050919050565b6000602082019050818103600083015261094181610905565b9050919050565b6000610953826105a6565b915061095e836105a6565b9250828201905080821115610976576109756107de565b5b9291505056fea26469706673582212209761668057ea2bdbd91dcc6716228c99fe69e45d76764ae8797306c7c9c2c40264736f6c63430008110033",
  "linkReferences": {},
  "deployedLinkReferences": {}
}